:100000000C942A000C9447000C9447000C94470071
:100010000C9447000C9447000C9447000C94470044
:100020000C9447000C9447000C9447000C94470034
:100030000C9447000C9447000C9447000C94470024
:100040000C9447000C9447000C9447000C94470014
:100050000C94470011241FBECFE5D8E0DEBFCDBF12
:1000600010E0A0E6B0E0ECE9F6E002C005900D92E9
:10007000A038B107D9F710E0A0E8B0E001C01D92A8
:10008000A738B107E1F70E9444010C944C030C948B
:100090000000FB018A30910540F46AE070E00E94A4
:1000A0003803805D8083118208958436910550F471
:1000B0006AE070E00E943803605D6083805D818348
:1000C0001282089523E0883E920780F464E670E08F
:1000D0000E943803605D60836AE070E00E9438032C
:1000E000605D6183805D82831382089527E28031A1
:1000F0009207B0F468EE73E00E943803605D60839D
:1001000064E670E00E943803605D61836AE070E03D
:100110000E943803605D6283805D8383148208954A
:1001200060E177E20E943803605D608368EE73E00F
:100130000E943803605D618364E670E00E943803CA
:10014000605D62836AE070E00E943803605D6383F3
:10015000805D848315820895C39A8FEC97E00197A0
:10016000F1F700C00000C3988FEC97E00197F1F71A
:1001700000C000000895CF93C82F882314F0DF98A3
:1001800001C0DF9A8C2F829586958695837080FDBD
:1001900002C0DE9801C0DE9A8C2F8295869587700A
:1001A00080FD02C0DD9801C0DD9A8C2F82958F7092
:1001B00080FD02C0DC9801C0DC9A0E94AC008C2F4C
:1001C00086958695869580FD02C0DF9801C0DF9AEE
:1001D0008C2F8695869580FD02C0DE9801C0DE9A40
:1001E0008C2F869580FD02C0DD9801C0DD9AC0FD90
:1001F00002C0DC9801C0DC9A0E94AC00CF91089547
:10020000C19A0E94BB000895CF93DF93EC018881CF
:10021000882331F021960E94000189918823D9F723
:10022000DF91CF910895CF93DF93C2E8D0E0BE0174
:100230000E944900CE010E940401DF91CF910895F0
:10024000C1980E94BB0008958AB3806F8ABB87B3B0
:100250008E6087BBC29882E00E94200188E20E94E3
:10026000200181E00E9420018CE00E94200186E0B4
:100270000E94200180E80E9420018FE39CE9019701
:10028000F1F700C0000008950E94240180E690E08C
:100290000E9404010F2EFBE6EF2EF0E0FF2EF02D62
:1002A000C0E6D0E00BE710E00F2EF3E7CF2EF0E032
:1002B000DF2EF02DD09A2AE12A95F1F700C0D89AC6
:1002C00088E28A95F1F7D89825E32A95F1F700009E
:1002D000D0980E949F012FEF8F3F920721F4C70112
:1002E0000E940401E7CF8F3F910521F4C6010E94CF
:1002F0000401E0CFBC0180E090E00E94AA0223E369
:1003000033E349E652E40E9411020E947902DC01C3
:10031000CB01909381008093800081E00E942001B6
:10032000CE010E94040180918000909181000E9482
:100330001301C8010E9404010E940802BBCFC899A2
:100340001DC081E090E0A0E0B0E0C8990EC0019629
:10035000A11DB11D803C27E2920729E0A20720E001
:10036000B20799F78FEF9FEF0895803C47E294071B
:1003700049E0A40740E0B40709F441C01FBC82E093
:100380008EBD1DBC1CBCC89B28C08CB59DB52AEE7B
:100390008136920710F581E090E0A0E0B0E0C89BC4
:1003A00014C02CB53DB54AEE2136340770F40196E1
:1003B000A11DB11D803C27E2920729E0A20720E0A1
:1003C000B20769F78FEF9FEF0895803C47E29407EB
:1003D00049E0A40740E0B407A9F08CB59DB5A0E0C2
:1003E000B0E01EBC81362AEE920720E0A20720E092
:1003F000B20758F4B695A7959795879508958FEF0E
:100400009FEF08958FEF9FEF08958EEF9FEF089570
:100410004AE020E030E0C9010197F1F74150D9F7F7
:1004200008950CD0EBC0E3D040F0DAD030F021F4E6
:100430005F3F19F0CCC0511115C1CFC0F0D098F377
:100440009923C9F35523B1F3951B550BBB27AA2755
:1004500062177307840738F09F5F5F4F220F331FC7
:10046000441FAA1FA9F333D00E2E3AF0E0E830D093
:1004700091505040E695001CCAF729D0FE2F27D096
:10048000660F771F881FBB1F261737074807AB0764
:10049000B0E809F0BB0B802DBF01FF2793585F4FD9
:1004A0002AF09E3F510568F092C0DCC05F3FECF33C
:1004B000983EDCF3869577956795B795F7959F5F9E
:1004C000C9F7880F911D9695879597F90895E1E0F2
:1004D000660F771F881FBB1F621773078407BA0751
:1004E00020F0621B730B840BBA0BEE1F88F7E095AC
:1004F000089504D06894B111B5C0089598D088F0DB
:100500009F5790F0B92F9927B751A0F0D1F0660FFF
:10051000771F881F991F1AF0BA95C9F712C0B1301A
:1005200081F09FD0B1E008959CC0672F782F882775
:10053000B85F39F0B93FCCF3869577956795B39559
:10054000D9F73EF490958095709561957F4F8F4FC8
:100550009F4F0895E89409C097FB3EF490958095CD
:10056000709561957F4F8F4F9F4F9923A9F0F92F79
:1005700096E9BB279395F695879577956795B795F7
:10058000F111F8CFFAF4BB0F11F460FF1BC06F5FDD
:100590007F4F8F4F9F4F16C0882311F096E911C0EF
:1005A000772321F09EE8872F762F05C0662371F010
:1005B00096E8862F70E060E02AF09A95660F771F24
:1005C000881FDAF7880F9695879597F9089597F918
:1005D0009F6780E870E060E008959FEF80EC0895E9
:1005E00000240A9416161706180609060895002412
:1005F0000A9412161306140605060895092E03948C
:10060000000C11F4882352F0BB0F40F4BF2B11F4FF
:1006100060FF04C06F5F7F4F8F4F9F4F089557FD5E
:100620009058440F551F59F05F3F71F04795880F60
:1006300097FB991F61F09F3F79F0879508951216F7
:1006400013061406551FF2CF4695F1DF08C01616A3
:1006500017061806991FF1CF869571056105089454
:100660000895E894BB2766277727CB0197F908956B
:10067000AA1BBB1B51E107C0AA1FBB1FA617B707C8
:1006800010F0A61BB70B881F991F5A95A9F78095E4
:0C0690009095BC01CD010895F894FFCFB7
:10069C0044697374616E63653A20004572726F72BF
:1006AC00202100436C65617220210020636D0000E5
:00000001FF
