:100000000C942A000C9447000C9447000C94470071
:100010000C9447000C9447000C9447000C94470044
:100020000C9447000C9447000C9447000C940C026D
:100030000C9447000C9447000C9447000C94470024
:100040000C9447000C9447000C9447000C94470014
:100050000C94470011241FBECFE5D8E0DEBFCDBF12
:1000600010E0A0E6B0E0E8EEF4E002C005900D92EA
:10007000AE36B107D9F710E0AEE6B0E001C01D9290
:10008000A837B107E1F70E945E010C9472020C944C
:100090000000FB018A30910540F46AE070E00E94A4
:1000A0003C02805D8083118208958436910550F46E
:1000B0006AE070E00E943C02605D6083805D818345
:1000C0001282089523E0883E920780F464E670E08F
:1000D0000E943C02605D60836AE070E00E943C0226
:1000E000605D6183805D82831382089527E28031A1
:1000F0009207B0F468EE73E00E943C02605D60839A
:1001000064E670E00E943C02605D61836AE070E03A
:100110000E943C02605D6283805D83831482089547
:1001200060E177E20E943C02605D608368EE73E00C
:100130000E943C02605D618364E670E00E943C02C4
:10014000605D62836AE070E00E943C02605D6383F0
:10015000805D848315820895C39A8FEC97E00197A0
:10016000F1F700C00000C3988FEC97E00197F1F71A
:1001700000C000000895CF93C82F882314F0DF98A3
:1001800001C0DF9A8C2F829586958695837080FDBD
:1001900002C0DE9801C0DE9A8C2F8295869587700A
:1001A00080FD02C0DD9801C0DD9A8C2F82958F7092
:1001B00080FD02C0DC9801C0DC9A0E94AC008C2F4C
:1001C00086958695869580FD02C0DF9801C0DF9AEE
:1001D0008C2F8695869580FD02C0DE9801C0DE9A40
:1001E0008C2F869580FD02C0DD9801C0DD9AC0FD90
:1001F00002C0DC9801C0DC9A0E94AC00CF91089547
:10020000C19A0E94BB000895CF93DF93EC018881CF
:10021000882331F021960E94000189918823D9F723
:10022000DF91CF910895CF93DF93C3E7D0E0BE0174
:100230000E944900CE010E940401DF91CF910895F0
:10024000C1980E94BB0008958AB3806F8ABB87B3B0
:100250008E6087BBC29882E00E94200188E20E94E3
:10026000200181E00E9420018CE00E94200186E0B4
:100270000E94200180E80E9420018FE39CE9019701
:10028000F1F700C0000008950F931F93CF93DF9301
:10029000EC0180E80E9420011C161D0654F400E0C9
:1002A00010E084E10E9420010F5F1F4F0C171D0713
:1002B000C1F7DF91CF911F910F9108950E94240102
:1002C0000E94A20180E690E00E9404010E94AC011D
:1002D000DC01CB0180936E0090936F00A0937000BF
:1002E000B0937100CEE6D0E00BE610E00E94AC01C6
:1002F000DC01CB0180936E0090936F00A09370009F
:10030000B09371008AE090E00E9444018881998155
:100310000E941301C8010E9404018FEF94E3ACE036
:1003200081509040A040E1F700C00000DFCF109264
:10033000720012BE83B7846083BF089583B7887F3D
:1003400083BF089580E883BF12BE789489B7816027
:1003500089BFA09AA19808950F931F93CF93DF931D
:1003600000D000D0CDB7DEB719821A821B821C8262
:10037000A8988AE18A95F1F700C0A89A85E38A9542
:10038000F1F70000A89899990DC0999BFECF0E94A3
:100390009701999B04C0809172008330D1F70E942D
:1003A0009E010CC09999FECF0E949701999904C0B3
:1003B000809172008330D1F70E949E0182B79091A4
:1003C0007200792F60E0680F711D762F66278827ED
:1003D00077FD8095982F20ED34E840E050E00E94B2
:1003E0001D0220E034E244EF50E00E9450022983D5
:1003F0003A834B835C8309811A812B813C81602F76
:10040000712F822F932F0F900F900F900F90DF91ED
:10041000CF911F910F9108951F920F920FB60F92D7
:1004200011248F93809172008F5F809372008F915F
:100430000F900FBE0F901F901895629FD001739F71
:10044000F001829FE00DF11D649FE00DF11D929F70
:10045000F00D839FF00D749FF00D659FF00D9927AF
:10046000729FB00DE11DF91F639FB00DE11DF91FD3
:10047000BD01CF0111240895AA1BBB1B51E107C088
:10048000AA1FBB1FA617B70710F0A61BB70B881F24
:10049000991F5A95A9F780959095BC01CD010895B3
:1004A000A1E21A2EAA1BBB1BFD010DC0AA1FBB1F78
:1004B000EE1FFF1FA217B307E407F50720F0A21BEA
:1004C000B30BE40BF50B661F771F881F991F1A9457
:1004D00069F760957095809590959B01AC01BD0181
:0804E000CF010895F894FFCF4D
:0E04E80064697374616E63653D2000636D008E
:00000001FF
